:10000300FF0000FE0100FD0200FC0300FB0400FAF8
:100013000500F90600F80700F70800F60900F50ADD
:1000230000F40B00F30C00F20D00F10E00F00F00D2
:10003300EF1000EE1100ED1200EC1300EB1400EAD8
:100043001500E91600E81700E71800E61900E51A9D
:1000530000E41B00E31C00E21D00E11E00E01F00A2
:10006300DF2000DE2100DD2200DC2300DB2400DAB8
:100073002500D92600D82700D72800D62900D52A5D
:1000830000D42B00D32C00D22D00D12E00D02F0072
:10009300CF3000CE3100CD3200CC3300CB3400CA98
:1000A3003500C93600C83700C73800C63900C53A1D
:1000B30000C43B00C33C00C23D00C13E00C03F0042
:1000C300BF4000BE4100BD4200BC4300BB4400BA78
:1000D3004500B94600B84700B74800B64900B54ADD
:1000E30000B44B00B34C00B24D00B14E00B04F0012
:1000F300AF5000AE5100AD5200AC5300AB5400AA58
:100103005500A95600A85700A75800A65900A55A9C
:1001130000A45B00A35C00A25D00A15E00A05F00E1
:100123009F60009E61009D62009C63009B64009A37
:100133006500996600986700976800966900956A5C
:1001430000946B00936C00926D00916E00906F00B1
:100153008F70008E71008D72008C73008B74008A17
:100163007500897600887700877800867900857A1C
:1001730000847B00837C00827D00817E00807F0081
:100183007F80007E81007D82007C83007B84007AF7
:100193008500798600788700778800768900758ADC
:1001A30000748B00738C00728D00718E00708F0051
:1001B3006F90006E91006D92006C93006B94006AD7
:1001C3009500699600689700679800669900659A9C
:1001D30000649B00639C00629D00619E00609F0021
:1001E3005FA0005EA1005DA2005CA3005BA4005AB7
:1001F300A50059A60058A70057A80056A90055AA5C
:100203000054AB0053AC0052AD0051AE0050AF00F0
:100213004FB0004EB1004DB2004CB3004BB4004A96
:10022300B50049B60048B70047B80046B90045BA1B
:100233000044BB0043BC0042BD0041BE0040BF00C0
:100243003FC0003EC1003DC2003CC3003BC4003A76
:10025300C50039C60038C70037C80036C90035CADB
:100263000034CB0033CC0032CD0031CE0030CF0090
:100273002FD0002ED1002DD2002CD3002BD4002A56
:10028300D50029D60028D70027D80026D90025DA9B
:100293000024DB0023DC0022DD0021DE0020DF0060
:1002A3001FE0001EE1001DE2001CE3001BE4001A36
:1002B300E50019E60018E70017E80016E90015EA5B
:1002C3000014EB0013EC0012ED0011EE0010EF0030
:1002D3000FF0000EF1000DF2000CF3000BF4000A16
:1002E300F50009F60008F70007F80006F90005FA1B
:1002F3000004FB0003FC0002FD0001FE0000FF0000
:1003030000FE0100FD0200FC0300FB0400FA0500EF
:10031300F90600F80700F70800F60900F50A00F4EB
:100323000B00F30C00F20D00F10E00F00F00EF10C4
:1003330000EE1100ED1200EC1300EB1400EA1500BF
:10034300E91600E81700E71800E61900E51A00E4CB
:100353001B00E31C00E21D00E11E00E01F00DF2084
:1003630000DE2100DD2200DC2300DB2400DA25008F
:10037300D92600D82700D72800D62900D52A00D4AB
:100383002B00D32C00D22D00D12E00D02F00CF3044
:1003930000CE3100CD3200CC3300CB3400CA35005F
:1003A300C93600C83700C73800C63900C53A00C48B
:1003B3003B00C33C00C23D00C13E00C03F00BF4004
:1003C30000BE4100BD4200BC4300BB4400BA45002F
:1003D300B94600B84700B74800B64900B54A00B46B
:1003E3004B00B34C00B24D00B14E00B04F00AF50C4
:1003F30000AE5100AD5200AC5300AB5400AA5500FF
:10040300A95600A85700A75800A65900A55A00A44A
:100413005B00A35C00A25D00A15E00A05F009F6083
:10042300009E61009D62009C63009B64009A6500CE
:10043300996600986700976800966900956A00942A
:100443006B00936C00926D00916E00906F008F7043
:10045300008E71008D72008C73008B74008A75009E
:10046300897600887700877800867900857A00840A
:100473007B00837C00827D00817E00807F007F8003
:10048300007E81007D82007C83007B84007A85006E
:10049300798600788700778800768900758A0074EA
:1004A3008B00738C00728D00718E00708F006F90C3
:1004B300006E91006D92006C93006B94006A95003E
:1004C300699600689700679800669900659A0064CA
:1004D3009B00639C00629D00619E00609F005FA083
:1004E300005EA1005DA2005CA3005BA4005AA5000E
:1004F30059A60058A70057A80056A90055AA0054AA
:10050300AB0053AC0052AD0051AE0050AF004FB042
:10051300004EB1004DB2004CB3004BB4004AB500DD
:1005230049B60048B70047B80046B90045BA004489
:10053300BB0043BC0042BD0041BE0040BF003FC002
:10054300003EC1003DC2003CC3003BC4003AC500AD
:1005530039C60038C70037C80036C90035CA003469
:10056300CB0033CC0032CD0031CE0030CF002FD0C2
:10057300002ED1002DD2002CD3002BD4002AD5007D
:1005830029D60028D70027D80026D90025DA002449
:10059300DB0023DC0022DD0021DE0020DF001FE082
:1005A300001EE1001DE2001CE3001BE4001AE5004D
:1005B30019E60018E70017E80016E90015EA001429
:1005C300EB0013EC0012ED0011EE0010EF000FF042
:1005D300000EF1000DF2000CF3000BF4000AF5001D
:1005E30009F60008F70007F80006F90005FA000409
:1005F300FB0003FC0002FD0001FE0000FF0100FE02
:100603000200FD0300FC0400FB0500FA0600F907E5
:1006130000F80800F70900F60A00F50B00F40C00D7
:10062300F30D00F20E00F10F00F01000EF1100EED9
:100633001200ED1300EC1400EB1500EA1600E917A5
:1006430000E81800E71900E61A00E51B00E41C00A7
:10065300E31D00E21E00E11F00E02000DF2100DEB9
:100663002200DD2300DC2400DB2500DA2600D92765
:1006730000D82800D72900D62A00D52B00D42C0077
:10068300D32D00D22E00D12F00D03000CF3100CE99
:100693003200CD3300CC3400CB3500CA3600C93725
:1006A30000C83800C73900C63A00C53B00C43C0047
:1006B300C33D00C23E00C13F00C04000BF4100BE79
:1006C3004200BD4300BC4400BB4500BA4600B947E5
:1006D30000B84800B74900B64A00B54B00B44C0017
:1006E300B34D00B24E00B14F00B05000AF5100AE59
:1006F3005200AD5300AC5400AB5500AA5600A957A5
:1007030000A85800A75900A65A00A55B00A45C00E6
:10071300A35D00A25E00A15F00A060009F61009E38
:1007230062009D63009C64009B65009A6600996764
:1007330000986800976900966A00956B00946C00B6
:10074300936D00926E00916F009070008F71008E18
:1007530072008D73008C74008B75008A7600897724
:1007630000887800877900867A00857B00847C0086
:10077300837D00827E00817F008080007F81007EF8
:1007830082007D83007C84007B85007A86007987E4
:1007930000788800778900768A00758B00748C0056
:1007A300738D00728E00718F007090006F91006ED8
:1007B30092006D93006C94006B95006A96006997A4
:1007C30000689800679900669A00659B00649C0026
:1007D300639D00629E00619F0060A0005FA1005EB8
:1007E300A2005DA3005CA4005BA5005AA60059A764
:1007F3000058A80057A90056AA0055AB0054AC00F6
:1008030053AD0052AE0051AF0050B0004FB1004E97
:10081300B2004DB3004CB4004BB5004AB60049B723
:100823000048B80047B90046BA0045BB0044BC00C5
:1008330043BD0042BE0041BF0040C0003FC1003E77
:10084300C2003DC3003CC4003BC5003AC60039C7E3
:100853000038C80037C90036CA0035CB0034CC0095
:1008630033CD0032CE0031CF0030D0002FD1002E57
:10087300D2002DD3002CD4002BD5002AD60029D7A3
:100883000028D80027D90026DA0025DB0024DC0065
:1008930023DD0022DE0021DF0020E0001FE1001E37
:1008A300E2001DE3001CE4001BE5001AE60019E763
:1008B3000018E80017E90016EA0015EB0014EC0035
:1008C30013ED0012EE0011EF0010F0000FF1000E17
:1008D300F2000DF3000CF4000BF5000AF60009F723
:1008E3000008F80007F90006FA0005FB0004FC0005
:0A08F30003FD0002FE0001FF0000FB
:101E9300C1014100090041000A006036000E000044
:101EA300000000000000000000000000000000002F
:101EB300000000000000000000000000000000001F
:101EC300000000000000000000000000000000000F
:101ED300000000004100080042000C000041000027
:101EE300FF410001004100020041000300410004E2
:0D1EF300004100050041000601410007010B
:0B21E800EF1FAC0670011E4C70F622C9
:04213A00AB07AA063F
:10213E00900000E4F583F582C3E5829BE5839A5017
:0B214E000A7FDC7E051221E8A380ED73
:012159002263
:0421FE008F828E83BB
:03220200E493FF63
:0122050022B6
:081375009000C4EEF0A3EFF0BC
:10137D00E4FCFBFA9000C4E0FEA3E07807CEC313B3
:10138D00CE13D8F97807C333CE33CED8F9FF9000FA
:10139D00C6EEF0A3EFF0E4FCECFF9000C7E02FFFEA
:1013AD009000C6E03400FE1221FE7A00AB077444B3
:1013BD002CF582E43400F583EFF00CECB480D97C8D
:1013CD00009000C5E0547F2444F582EC3400F58391
:1013DD00EDF09000C6E0FEA3E0F5A6EEF5A775AE24
:1013ED00FFA2AF9200C2AF75C7AA75C755439F0143
:1013FD00A20092AFA2AF9200C2AF75C7AA75C75532
:10140D0043A501A20092AF75AF22A2AF9200C2AF69
:10141D0075C7AA75C75543A401A20092AFA2AF929A
:10142D0000C2AF75C7AA75C755439F01A20092AF01
:10143D00A2AF9200C2AF75C7AA75C75543A501A249
:10144D000092AF75AF21E49000C6E0FEA3E02CF54D
:10145D00A6EEF5A774442CF582E43400F583E0F58F
:10146D00AEA2AF9200C2AF75C7AA75C75543A4010E
:10147D00A20092AF0CECB480CEA2AF9200C2AF75B9
:10148D00C7AA75C75553A5FEA20092AFA2AF920091
:0F149D00C2AF75C7AA75C755539FFEA20092AF85
:0114AC00221D
:10218D00D2800000000000D2800000000000C2805C
:06219D000000000000221A
:1021A300D2800000000000C2800000000000C28056
:0621B30000000000002204
:10217500E4FEEF30E70512218D80031221A3EF2540
:07218500E0FF0EEEB408EBD1
:01218C002230
:0B21F300EF70041221A32212218D22A4
:0722060053B1FE43B20122B7
:10215A00E49000DFF0A3F0C280EF70077F64FE1204
:0A216A0021E8227FC27E011221E865
:012174002248
:101FC5009000DDEEF0A3EFF0E4FDFF12215AE4ED01
:101FD50075F003A4240EF582E43400F583E0FF12C6
:101FE5002175ED75F003A4240FF582E43400F58323
:101FF500E0FF122175ED75F003A42410F582E43499
:1020050000F583E0FF1221750DEDB412C27F0112B8
:02201500215A4E
:0120170022A6
:1021CC007E007F367D007B017A00790E120F58223B
:1020AC00E49000E1F0A3F0A3F0EF75F003A4240E8C
:1020BC00F582E43400F583EBF0EF75F003A4240F04
:1020CC00F582E43400F583EDF09000E0E0FEEF756E
:0E20DC00F003A42410F582E43400F583EEF046
:0120EA0022D3
:0920EB009000DCEFF0AC03A90544
:1020F400E4FAAF029000DCE0FDAB019000E0ECF00C
:0F2104001220AC0AEAB412EA7F367E00121FC521
:0121130022A9
:0B1965009000C9EBF0A3EAF0A3E9F04A
:10197000900003E014602114602F14603C14604A4E
:1019800014605924057060900001E004F0E0F470E8
:101990005690000304F0804F900000E014F0E070D7
:1019A000469000037402F0803E900002E004F0E0F4
:1019B000F47034A37403F0802E900001E014F0E082
:1019C00070259000037404F0801D900000E004F086
:1019D000E0B4FF139000037405F0800B900002E068
:1019E00014F0E07002A3F0900001E0FF9000CCE062
:1019F000FBA3E0FAA3E0F9EF120E74900000E0FF01
:101A00009000C9E0FBA3E0FAA3E0F9EF120E749096
:101A10000002E0FF9000CFE0FBA3E0FAA3E0F9EFC3
:031A2000120E742F
:011A230022A0
:1017B9009000CFEBF0A3EAF0A3E9F0C374FF9FFF19
:1017C900C39455503FA3E0FBA3E0FAA3E0F9E41268
:1017D9000E74EF75F003A4FEC374FF9EFE9000CF54
:1017E900E0FBA3E0FAA3E0F9EE120E74EF75F00343
:1017F900A4FF9000D5E0FBA3E0FAA3E0F9EF120EF5
:10180900747F0022EFC394AA504474AB2FFF75F084
:1018190003A4FE9000D2E0FBA3E0FAA3E0F9EE12E4
:101829000E749000CFE0FBA3E0FAA3E0F9E4120EF6
:1018390074EF75F003A4FFC374FF9FFF9000D5E018
:10184900FBA3E0FAA3E0F9EF120E747F00227456AD
:101859002FFF75F003A4FEC374FF9EFE9000D2E033
:10186900FBA3E0FAA3E0F9EE120E74EF75F003A4FE
:10187900FF9000CFE0FBA3E0FAA3E0F9EF120E74AA
:101889009000D5E0FBA3E0FAA3E0F9E4120E74FF9F
:01189900222C
:101228009000C4EEF0A3EFF0A3ECF0A3EDF0A3EB75
:01123800F0C5
:10123900E49000CEF0A3F09000CBE0FFE4C3EF9B75
:10124900FFE49400FEE49400FDE49400FCC006C0B1
:10125900079000C6E0FEA3E0FFFBAA06E4F9F8D078
:1012690007D0061220689000D0EEF0A3EFF09000AE
:10127900C9E0FFFBE49000CCE0FFE4C3EF9BFFE48F
:101289009400FEE49400FDE49400FCC006C00790BD
:1012990000C6E0FEA3E0FFFBAA06E4F9F8D007D0F8
:1012A900061220689000D2EEF0A3EFF09000CAE099
:1012B900FFFBE49000CDE0FFE4C3EF9BFFE4940063
:1012C900FEE49400FDE49400FCC006C0079000C64B
:1012D900E0FEA3E0FFFBAA06E4F9F8D007D0061266
:1012E90020689000D4EEF0A3EFF0E49000CEF0A3D4
:1012F900F09000C6E0FEA3E0FF9000CEE0FCA3E082
:10130900FDC39FEC9E5064A3E0A3E0FFAE05EE8F02
:10131900F0A4FF9000C8E02FFF9000D2E0A3E0FD09
:10132900EE8DF0A4FE9000C9E02EFD9000D4E0A35C
:10133900E0FE9000CEE0A3E08EF0A4FE9000CAE0AB
:101349002EFB1220EB9000C6E0FCA3E0FD9000C448
:10135900E0FEA3E0FF120E861221E89000CFE00420
:0B136900F070069000CEE004F08086DB
:011374002256
:0E2018009000C4EEF0A3EFF0A3EDF0A3EBF008
:10202600E49000C9F0F0E4FBFDFF1220EB9000C93C
:10203600E0FF9000C6E0FDA3E0FBA3E09000E0F027
:102046001220AC7F367E00121FC59000C4E0FEA3AE
:10205600E0FF12213A9000C9E004F0E0C394124078
:01206600C5B4
:012067002256
:081052009000C4EEF0A3EFF0E2
:10105A00E49000CFF0A37423F0AF05EFC413131389
:10106A005401FF9000C9F0AE03EEC41313135401E8
:10107A00FEA3F09000C8E0FDC41313135401FD90C1
:10108A0000CBF0EF75F07FA4A3F0EE75F07FA4A378
:10109A00F0ED75F07FA4A3F0E4FBFDFF1220EBE472
:1010AA009000CFF09000CFE0FEC3948050439000B0
:1010BA00C9E0FF9000CFE0FD8FF0A4FF9000CAE0E6
:1010CA00FCED8CF0A4FDA3E0FCEE8CF0A4FB122056
:1010DA00EB9000D0E0240FFDE433FC9000C4E0FE66
:1010EA00A3E0FF120E861221E89000CFE004F08000
:1010FA00B3E49000CFF09000CFE0FEC39480505A42
:10110A009000C9E0FF9000CFE0FD8FF0A4FF9000AF
:10111A00CCE0C39FFF9000CAE0FCED8CF0A4FD90E8
:10112A0000CDE0C39DFD9000CBE0FCEE8CF0A4FE68
:10113A009000CEE0C39EFB1220EB9000D0E0240A80
:10114A00FDE433FC9000C4E0FEA3E0FF120E861219
:10115A0021E89000CFE004F0809CE49000CFF0906A
:10116A0000CFE0FEC3948050439000C9E0FF900096
:10117A00CFE0FD8FF0A4FF9000CAE0FCED8CF0A454
:10118A00FDA3E0FCEE8CF0A4FB1220EB9000D0E073
:10119A002405FDE433FC9000C4E0FEA3E0FF120E38
:1011AA00861221E89000CFE004F080B3E49000CFEB
:1011BA00F09000CFE0FEC3948050579000C9E0FF42
:1011CA009000CFE0FD8FF0A4FF9000CCE0C39FFF1A
:1011DA009000CAE0FCED8CF0A4FD9000CDE0C39D28
:1011EA00FD9000CBE0FCEE8CF0A4FE9000CEE0C3B4
:1011FA009EFB1220EB9000D0E0FD7C009000C4E042
:10120A00FEA3E0FF120E861221E89000CFE004F060
:0D121A00809F9000C4E0FEA3E0FF12213A87
:0112270022A4
:081C31009000C4EEF0A3EFF0F7
:101C3900E4A3F0A3F0F99000C6F0A3F0E4F9900052
:101C4900C6E0FEA3E0FF90000375F003120F4CEE0F
:101C590075F003A42583F583E493FD90000475F0E2
:101C690003EF120F4CEE75F003A42583F583E4937B
:101C7900FB90000575F003EF120F4CEE75F003A40D
:101C89002583F583E4939000E0F0AF011220AC09BD
:101C9900E9B412AA7F367E00121FC59000C4E0FE87
:101CA900A3E0FF12213A9000C7E004F0700690000B
:101CB900C6E004F0C39000C7E094FE9000C6E0942B
:061CC900025003021C455D
:011CCF0022F2
:081A24009000C4EEF0A3EFF006
:101A2C00E4A3F0A3F0A3F0A3F09000C8F09000C8DA
:101A3C00E0FA75F02AA4FF9000C7E02FFF9000C6D3
:101A4C00E035F0FE7C027DFE120E86AF059000C9DB
:101A5C00EFF075F003A42403F582E5F03400F58370
:101A6C00E493FD75F003EFA42404F582E5F0340053
:101A7C00F583E493FB75F003EFA42405F582E5F000
:101A8C003400F583E4939000E0F0AF021220AC7FB9
:101A9C00367E00121FC59000C4E0FEA3E0FF1221A9
:101AAC003A9000C7E0242AF09000C6E03400F0E041
:101ABC00FEA3E0FF7C027DFE120E869000C6ECF0C9
:101ACC00A3EDF0A3E004F0E0C394125003021A3922
:011ADC0022E7
:101ADD009000C4EEF0A3EFF0A3ECF0A3EDF0A3EBB8
:011AED00F008
:101AEE00E49000CBF09000C6E0FCA3E0FD7E007F0A
:101AFE0012120E869000CCEEF0A3EFF0E4FBFDFF89
:101B0E001220EBE49000CBF0E4FBFDFF1220EBE49F
:101B1E009000CEF0A3F09000C6E0FEA3E0FF900090
:101B2E00CEE0FCA3E0FDC39FEC9E50339000CCE0D2
:101B3E00A3E0FFED8FF0A4FF9000CBE02FFF90000D
:101B4E00C8E0FDA3E0FBA3E09000E0F01220AC9013
:101B5E0000CFE004F070069000CEE004F080B77F76
:101B6E00367E00121FC59000C4E0FEA3E0FF1221D6
:0D1B7E003A9000CBE004F0E0C39412408BDD
:011B8B002237
:0E1F01009000C4EEF0A3EFF0A3EDF0A3EBF020
:101F0F00E4F9FBFDFF1220EBE4F9AF019000C6E00E
:101F1F00FDA3E0FBA3E09000E0F01220AC7F367E43
:101F2F0000121FC59000C4E0FEA3E0FF12213A0982
:101F3F00E9B412D6E4F9AF01E49000E0F0FBFD1232
:101F4F0020AC7F367E00121FC59000C4E0FEA3E0D8
:091F5F00FF12213A09E9B412DD78
:011F68002256
:100C4B009000C4EEF0A3EFF0A3ECF0A3EDF0A3EB58
:010C5B00F0A8
:100C5C00E49000CEF0A3F09000CBE0FFE4C3EF9B58
:100C6C00FFE49400FEE49400FDE49400FCC006C094
:100C7C00079000C6E0FEA3E0FFFBAA06E4F9F8D05B
:100C8C0007D0061220689000D0120F409000C9E0E7
:100C9C00FFFBE49000CCE0FFE4C3EF9BFFE4940087
:100CAC00FEE49400FDE49400FCC006C0079000C66E
:100CBC00E0FEA3E0FFFBAA06E4F9F8D007D0061289
:100CCC0020689000D4120F409000CAE0FFFBE49023
:100CDC0000CDE0FFE4C3EF9BFFE49400FEE494003E
:100CEC00FDE49400FCC006C0079000C6E0FEA3E043
:100CFC00FFFBAA06E4F9F8D007D006122068900092
:100D0C00D8120F40E49000CEF0A3F09000C6E0FCA7
:100D1C00A3E0FD9000CEE0FEA3E0FFC39DEE9C405F
:100D2C0003020DBEE4FCFDA3E0F8A3E0F9A3E0FA96
:100D3C00A3E0FB120EF19000C8E02FFFC00790005B
:100D4C00CEE0FEA3E0FFE4FCFD9000D4E0F8A3E0CD
:100D5C00F9A3E0FAA3E0FB120EF19000C9E02FFD1D
:100D6C00C0059000CEE0FEA3E0FFE4FCFD9000D8AF
:100D7C00E0F8A3E0F9A3E0FAA3E0FB120EF1900077
:100D8C00CAE02FFBD005D0071220EB9000C6E0FC88
:100D9C00A3E0FD9000C4E0FEA3E0FF120E8612213A
:100DAC00E89000CFE004F070069000CEE004F00272
:100DBC000D179000C7E024FFFE9000C6E034FF90B2
:100DCC0000CEF0A3CEF09000CEE0FEA3E0FFD394D3
:100DDC0000EE94005003020E73E4FCFDA3E0F8A3B4
:100DEC00E0F9A3E0FAA3E0FB120EF19000C8E02FAB
:100DFC00FFC0079000CEE0FEA3E0FFE4FCFD9000F6
:100E0C00D4E0F8A3E0F9A3E0FAA3E0FB120EF19012
:100E1C0000C9E02FFDC0059000CEE0FEA3E0FFE48A
:100E2C00FCFD9000D8E0F8A3E0F9A3E0FAA3E0FB06
:100E3C00120EF19000CAE02FFBD005D0071220EB68
:100E4C009000C6E0FCA3E0FD9000C4E0FEA3E0FF30
:100E5C00120E861221E89000CFE024FFF09000CE15
:070E6C00E034FFF0020DD29B
:010E7300225C
:081B8C009000C4EEF0A3EFF09D
:101B9400E4FA900005E06016900004E004F0E0B47C
:101BA400FF03E4A3F07F887E131221E880139000E2
:101BB40004E014F0E07003A304F07FE87E03122134
:101BC400E8E4FAAF02C007EA75F00384E5F05401D3
:101BD400FF900004E0FBEF8BF0A4FDC005EA2401B4
:101BE400FFE433FE7C007D03120E86ED54018BF07E
:101BF400A4FBEA2402FFE433FE7C007D03120E867C
:101C0400ED5401FFE0FEEF8EF0A49000E0F0D0056B
:101C1400D0071220AC7F367E00121FC59000C4E0AE
:0C1C2400FEA3E0FF1221E80AEAB41297C8
:011C30002291
:0814AD009000C4EEF0A3EFF083
:1014B500E4A3F0A3F0A3F0A3F0A3F09000CDF09087
:1014C50000C6F0A3F0E49000C8F0E49000C9F0A3D2
:1014D500F09000C9E0FEA3E0FFC39412EE94005023
:1014E500689000C6E0FCA3E0FDEF2DFFEE3CFE7C1E
:1014F500007DFF120E86AF059000D27401F0A37433
:1015050000F0A374CCF0A37401F0A37400F0A374ED
:10151500CDF07B017A0079CB1217B99000C9E0A311
:10152500E0FF9000C8E02FFF9000CBE0FDA3E0FBBB
:10153500A3E09000E0F01220AC9000CAE02403F094
:101545009000C9E03400F080887F367E00121FC508
:101555009000C4E0FEA3E0FF12213AE49000C9F038
:10156500A3F09000C9E0FEA3E0FFC39412EE94003F
:1015750050209000C8E02FFFE49000E0F0FBFD1242
:1015850020AC9000CAE02403F09000C9E03400F0DC
:1015950080D09000C8E004F0E0C394035003021427
:1015A500CF9000C7E004F070069000C6E004F0C3D9
:0B15B5009000C6E0940150030214CA2D
:0115C0002208
:0D16BF009000C4EEF0A3EFF0A3EDF0A9033E
:1016CC00E49000C9F0A3F0A3F0A3F0A3F0A3F09072
:1016DC0000C9F0A3F0E49000CBF0A3F0E49000CDAF
:1016EC00F0A3F09000CDE0FEA3E0FFC39412EE94C3
:1016FC0000502C9000CBE0A3E0FDEF2DFF9000C636
:10170C00E0FDAB019000C8E09000E0F01220AC903E
:10171C0000CEE02403F09000CDE03400F080C47FD4
:10172C00367E00121FC59000C4E0FEA3E0FF12211C
:10173C003AE49000CDF0A3F09000CDE0FEA3E0FFE2
:10174C00C39412EE940050249000CBE0A3E0FDEF84
:10175C002DFFE49000E0F0FBFD1220AC9000CEE0F9
:10176C002403F09000CDE03400F080CC9000CCE06D
:10177C0004F070069000CBE004F0C39000CCE09431
:10178C00039000CBE0940050030216E89000CAE0EE
:10179C0004F070069000C9E004F0C39000CAE09415
:0C17AC000A9000C9E0940050030216E10E
:0117B800220E
:0B189A009000C4EFF0A3ECF0A3EDF011
:1018A500E4A3F0A3F0A3F0A3F09000CDF09000C95D
:1018B500F0A3F09000C4E0FEC39000CAE09400904D
:1018C50000C9E09E4003021964E49000C7F0A3F04C
:1018D5009000C7E0FEA3E0FFC39412EE9400505CB5
:1018E500EF7F00FE7C007D12120E86A3E0A3E02FA1
:1018F500FF9000D27401F0A37400F0A374CCF0A3A0
:101905007401F0A37400F0A374CDF07B017A007923
:10191500CB1217B99000C7E0A3E0FF9000CBE0FD24
:10192500A3E0FBA3E09000E0F01220AC9000C8E03B
:1019350004F070069000C7E004F080947F367E00C6
:10194500121FC59000C5E0FEA3E0FF12213A9000EA
:0F195500CAE004F070069000C9E004F00218B870
:011964002260
:081F69009000C4EEF0A3EFF0BC
:101F7100E4FC9000C8F09000CC7401F0A37400F070
:101F8100A374C7F0A37401F0A37400F0A374C8F0A4
:101F91007B017A0079C6121965AF049000C6E0FD95
:101FA100A3E0FBA3E09000E0F01220AC0CECB41233
:101FB100C57F367E00121FC59000C4E0FEA3E0FF7E
:031FC10012213AB0
:011FC40022FA
:0815C1009000E4EEF0A3EFF04E
:1015C900E4A3F0A3F0A3F0FCA3F0A3F0FA9000E9E0
:1015D900E0FEA3E090000375F003120F4CEE75F0E6
:1015E90003A42583F583E4939000EBF09000E9E0F0
:1015F900A3E090000475F003120F4CEE75F003A4FC
:101609002583F583E493F99000E9E0A3E0900005D0
:1016190075F003120F4CEE75F003A42583F583E4EE
:1016290093FA900006E06030E4AF049000EBE0FD2F
:10163900AB019000E0EAF01220AC0CECB412EA7FA6
:10164900367E00121FC59000E4E0FEA3E0FF1221E0
:101659003AE4900006F080419000E7E4F0A374FFBB
:10166900F09000E7E0A3E0FBFDFF1220EB9000E41F
:10167900E0FEA3E0FF12213A9000E8E024FFF09099
:1016890000E7E034FFF0D3A3E0947F9000E7E09413
:101699000050CE9000067401F09000E9E475F00165
:1016A900120EDBFED3E5F094FEEE94024007E490BF
:0516B90000E9F0A3F0C0
:0116BE002209
:101CD0007F027E381221FEEF7D00FC7F031221FE81
:101CE0007E00ED2FFFEE3C90000CF0A3EFF0900093
:101CF00007E06030C390000DE094FD90000CE0948C
:101D0000024011E4900007F090000C7402F0A374FC
:101D1000FDF0803C90000DE004F0700690000CE0B7
:101D200004F0802CD390000DE0940090000CE0941F
:101D300000500F9000077401F0E490000CF0A3F045
:101D4000800E90000DE024FFF090000CE034FFF0D6
:101D500090000CE0FD7F027E3812137590000CE0BD
:0A1D6000A3E0FD7F037E3812137527
:011D6A002256
:102114007F017E381221FE900008EFF0E0FF04F00A
:10212400EFC3940D40037401F0900008E0FD7F01BB
:062134007E381213752233
:01220D0022AE
:1008FD00900008E0FF04F0EFC3940E40037401F084
:10090D00900008E014B40D004003020C4A90092831
:10091D0075F003A4C58325F0C5837302094F020941
:10092D005E0209680209BF0209CE0209D6020A4C0D
:10093D00020AA3020B09020B1F020B27020B7E02F8
:10094D000BD57F327E00121F697F307E0012213A57
:10095D00227D0A7C007F0212189A2290000CE0FE84
:10096D00A3E0FF90000375F003120F4CEE75F0033A
:10097D00A42583F583E493FD90000475F003EF1235
:10098D000F4CEE75F003A42583F583E493FB9000E3
:10099D000575F003EF120F4CEE75F003A42583F5EA
:1009AD0083E4939000C8F07F1E7E001216BF121CC8
:1009BD00D0227F017E001214AD7FF07E0012213A0D
:1009CD00227F3C7E00121B8C2290000CE0FEA3E0E7
:1009DD00FF90000375F003120F4CEE75F003A42584
:1009ED0083F583E493FB90000475F003EF120F4C35
:1009FD00EE75F003A42583F583E493FF90000CE0DE
:100A0D00FCA3E090000575F003120F4CEC75F0039C
:100A1D00A42583F583E493FE9000CDF09000CCEFF8
:100A2D00F09000CBEBF09000CAEEF09000C9EFF023
:100A3D007D807C007F007EFA120C4B121CD0229020
:100A4D00000CE0FEA3E0FF90000375F003120F4CC5
:100A5D00EE75F003A42583F583E493FD90000475F2
:100A6D00F003EF120F4CEE75F003A42583F583E42C
:100A7D0093FB90000575F003EF120F4CEE75F0032C
:100A8D00A42583F583E4939000C8F07F1E7E0012A9
:100A9D001F01121CD02290000CE0FEA3E0FF90007D
:100AAD000375F003120F4CEE75F003A42583F58347
:100ABD00E493FB90000475F003EF120F4CEE75F00C
:100ACD0003A42583F583E493FF90000CE0FCA3E0E1
:100ADD0090000575F003120F4CEC75F003A42583FF
:100AED00F583E4939000CAF09000C9EFF07D0A7C85
:100AFD00007F327E00121ADD121CD0227F3C7E0058
:100B0D00121A24E4FBFDFF1220EB7F787E001221E8
:100B1D003A227F0A7E00121C312290000CE0FEA3C7
:100B2D00E0FF90000375F003120F4CEE75F003A477
:100B3D002583F583E493FD90000475F003EF120F08
:100B4D004CEE75F003A42583F583E493FB9000052B
:100B5D0075F003EF120F4CEE75F003A42583F583AA
:100B6D00E4939000C8F07F847E03121052121CD0C3
:100B7D002290000CE0FEA3E0FF90000375F003123D
:100B8D000F4CEE75F003A42583F583E493FD9000DF
:100B9D000475F003EF120F4CEE75F003A42583F5E9
:100BAD0083E493FB90000575F003EF120F4CEE7587
:100BBD00F003A42583F583E4939000C8F07F1E7E97
:100BCD0000122018121CD02290000CE0FEA3E0FFB2
:100BDD0090000375F003120F4CEE75F003A42583FE
:100BED00F583E493FB90000475F003EF120F4CEEC8
:100BFD0075F003A42583F583E493FF90000CE0FCCE
:100C0D00A3E090000575F003120F4CEC75F003A4F2
:100C1D002583F583E493FE9000CDF09000CCEFF0AA
:100C2D009000CBEBF09000CAEEF09000C9EFF07D94
:0E0C3D00107C007F007E02121228121CD022B2
:101E0500E58720E403021E92A2AF9200C2AF75C718
:101E1500AA75C755439F01A20092AF75A638E4F590
:101E2500A775AF04A2AF9200C2AF75C7AA75C75513
:101E350043A401A20092AF85AE0875A639F5A7A205
:101E4500AF9200C2AF75C7AA75C75543A401A200DA
:101E550092AF85AE09A2AF9200C2AF75C7AA75C78A
:101E650055539FFEA20092AF75C7AA75C755850841
:101E75008475C7AA75C755850985A2AF9200C2AFFB
:0D1E850075C7AA75C755539FFEA20092AF06
:011E9200222D
:1021B900121E05E4F5B1F5B2F5B3F5B4F5ACF5AD1C
:0321C900D2AF2270
:0C21DC001221B91222061208FD80FB221D
:03000000021D6B73
:101D6B00787FE4F6D8FD9000007FFF7E03E4F0A3BC
:0A1D7B00DFFCDEFA758120021DC0B6
:101D85000221DCE493A3F8E493A34003F68001F277
:101D950008DFF48029E493A3F85407240CC8C3335F
:101DA500C4540F4420C8834004F456800146F6DF2E
:101DB500E4800B0102040810204080901E93E47E0D
:101DC500019360BCA3FF543F30E509541FFEE49323
:101DD500A360010ECF54C025E060A840B8E493A3EA
:101DE500FAE493A3F8E493A3C8C582C8CAC583CA15
:101DF500F0A3C8C582C8CAC583CADFE9DEE780BECD
:011F000000E0
:100E7400BB010689828A83F0225002F722BBFE015D
:020E8400F32257
:100E8600BC000BBE0029EF8DF084FFADF022E4CC50
:100E9600F875F008EF2FFFEE33FEEC33FCEE9DEC19
:100EA600984005FCEE9DFE0FD5F0E9E4CEFD22ED5F
:100EB600F8F5F0EE8420D21CFEADF075F008EF2FA9
:100EC600FFED33FD4007985006D5F0F222C398FD9A
:050ED6000FD5F0EA2237
:100EDB00A3F8E0C5F025F0F0E582158270021583CA
:060EEB00E0C838F0E82227
:100EF100E88FF0A4CC8BF0A42CFCE98EF0A42CFCA0
:100F01008AF0EDA42CFCEA8EF0A4CDA8F08BF0A41D
:100F11002DCC3825F0FDE98FF0A42CCD35F0FCEB7C
:100F21008EF0A4FEA9F0EB8FF0A4CFC5F02ECD3941
:0F0F3100FEE43CFCEAA42DCE35F0FDE43CFC22AE
:10206800C2D5E830E70FB2D5E4C39BFBE49AFAE4A3
:1020780099F9E498F8EC30E717B2D512209E120FC0
:10208800C0E4C39BFBE49AFAE499F9E498F8800366
:10209800120FC030D50DE4C39FFFE49EFEE49DFD02
:0420A800E49CFC2296
:0C0F4000ECF0A3EDF0A3EEF0A3EFF02224
:0C0F4C00A42582F582E5F03583F58322B0
:100F5800EF4E6012EF60010EEDBB010B89828A83B0
:100F6800F0A3DFFCDEFA2289F05007F709DFFCA9BD
:0C0F7800F022BBFEFCF309DFFCA9F02214
:100F840075F008758200EF2FFFEE33FECD33CDCC24
:100F940033CCC58233C5829BED9AEC99E5829840A7
:100FA4000CF582EE9BFEED9AFDEC99FC0FD5F0D684
:100FB400E4CEFBE4CDFAE4CCF9A88222B800C1B9AE
:100FC4000059BA002DEC8BF084CFCECDFCE5F0CBEC
:100FD400F97818EF2FFFEE33FEED33FDEC33FCEB25
:100FE40033FB10D703994004EB99FB0FD8E5E4F9E0
:100FF400FA227818EF2FFFEE33FEED33FDEC33FCCD
:10100400C933C910D7059BE99A4007EC9BFCE99AC0
:10101400F90FD8E0E4C9FAE4CCFB2275F010EF2F05
:10102400FFEE33FEED33FDCC33CCC833C810D70705
:101034009BEC9AE899400AED9BFDEC9AFCE899F840
:0E1044000FD5F0DAE4CDFBE4CCFAE4C8F922D3
:00000001FF
