:10000300FF0000FE0100FD0200FC0300FB0400FAF8
:100013000500F90600F80700F70800F60900F50ADD
:1000230000F40B00F30C00F20D00F10E00F00F00D2
:10003300EF1000EE1100ED1200EC1300EB1400EAD8
:100043001500E91600E81700E71800E61900E51A9D
:1000530000E41B00E31C00E21D00E11E00E01F00A2
:10006300DF2000DE2100DD2200DC2300DB2400DAB8
:100073002500D92600D82700D72800D62900D52A5D
:1000830000D42B00D32C00D22D00D12E00D02F0072
:10009300CF3000CE3100CD3200CC3300CB3400CA98
:1000A3003500C93600C83700C73800C63900C53A1D
:1000B30000C43B00C33C00C23D00C13E00C03F0042
:1000C300BF4000BE4100BD4200BC4300BB4400BA78
:1000D3004500B94600B84700B74800B64900B54ADD
:1000E30000B44B00B34C00B24D00B14E00B04F0012
:1000F300AF5000AE5100AD5200AC5300AB5400AA58
:100103005500A95600A85700A75800A65900A55A9C
:1001130000A45B00A35C00A25D00A15E00A05F00E1
:100123009F60009E61009D62009C63009B64009A37
:100133006500996600986700976800966900956A5C
:1001430000946B00936C00926D00916E00906F00B1
:100153008F70008E71008D72008C73008B74008A17
:100163007500897600887700877800867900857A1C
:1001730000847B00837C00827D00817E00807F0081
:100183007F80007E81007D82007C83007B84007AF7
:100193008500798600788700778800768900758ADC
:1001A30000748B00738C00728D00718E00708F0051
:1001B3006F90006E91006D92006C93006B94006AD7
:1001C3009500699600689700679800669900659A9C
:1001D30000649B00639C00629D00619E00609F0021
:1001E3005FA0005EA1005DA2005CA3005BA4005AB7
:1001F300A50059A60058A70057A80056A90055AA5C
:100203000054AB0053AC0052AD0051AE0050AF00F0
:100213004FB0004EB1004DB2004CB3004BB4004A96
:10022300B50049B60048B70047B80046B90045BA1B
:100233000044BB0043BC0042BD0041BE0040BF00C0
:100243003FC0003EC1003DC2003CC3003BC4003A76
:10025300C50039C60038C70037C80036C90035CADB
:100263000034CB0033CC0032CD0031CE0030CF0090
:100273002FD0002ED1002DD2002CD3002BD4002A56
:10028300D50029D60028D70027D80026D90025DA9B
:100293000024DB0023DC0022DD0021DE0020DF0060
:1002A3001FE0001EE1001DE2001CE3001BE4001A36
:1002B300E50019E60018E70017E80016E90015EA5B
:1002C3000014EB0013EC0012ED0011EE0010EF0030
:1002D3000FF0000EF1000DF2000CF3000BF4000A16
:1002E300F50009F60008F70007F80006F90005FA1B
:1002F3000004FB0003FC0002FD0001FE0000FF0000
:1003030000FE0100FD0200FC0300FB0400FA0500EF
:10031300F90600F80700F70800F60900F50A00F4EB
:100323000B00F30C00F20D00F10E00F00F00EF10C4
:1003330000EE1100ED1200EC1300EB1400EA1500BF
:10034300E91600E81700E71800E61900E51A00E4CB
:100353001B00E31C00E21D00E11E00E01F00DF2084
:1003630000DE2100DD2200DC2300DB2400DA25008F
:10037300D92600D82700D72800D62900D52A00D4AB
:100383002B00D32C00D22D00D12E00D02F00CF3044
:1003930000CE3100CD3200CC3300CB3400CA35005F
:1003A300C93600C83700C73800C63900C53A00C48B
:1003B3003B00C33C00C23D00C13E00C03F00BF4004
:1003C30000BE4100BD4200BC4300BB4400BA45002F
:1003D300B94600B84700B74800B64900B54A00B46B
:1003E3004B00B34C00B24D00B14E00B04F00AF50C4
:1003F30000AE5100AD5200AC5300AB5400AA5500FF
:10040300A95600A85700A75800A65900A55A00A44A
:100413005B00A35C00A25D00A15E00A05F009F6083
:10042300009E61009D62009C63009B64009A6500CE
:10043300996600986700976800966900956A00942A
:100443006B00936C00926D00916E00906F008F7043
:10045300008E71008D72008C73008B74008A75009E
:10046300897600887700877800867900857A00840A
:100473007B00837C00827D00817E00807F007F8003
:10048300007E81007D82007C83007B84007A85006E
:10049300798600788700778800768900758A0074EA
:1004A3008B00738C00728D00718E00708F006F90C3
:1004B300006E91006D92006C93006B94006A95003E
:1004C300699600689700679800669900659A0064CA
:1004D3009B00639C00629D00619E00609F005FA083
:1004E300005EA1005DA2005CA3005BA4005AA5000E
:1004F30059A60058A70057A80056A90055AA0054AA
:10050300AB0053AC0052AD0051AE0050AF004FB042
:10051300004EB1004DB2004CB3004BB4004AB500DD
:1005230049B60048B70047B80046B90045BA004489
:10053300BB0043BC0042BD0041BE0040BF003FC002
:10054300003EC1003DC2003CC3003BC4003AC500AD
:1005530039C60038C70037C80036C90035CA003469
:10056300CB0033CC0032CD0031CE0030CF002FD0C2
:10057300002ED1002DD2002CD3002BD4002AD5007D
:1005830029D60028D70027D80026D90025DA002449
:10059300DB0023DC0022DD0021DE0020DF001FE082
:1005A300001EE1001DE2001CE3001BE4001AE5004D
:1005B30019E60018E70017E80016E90015EA001429
:1005C300EB0013EC0012ED0011EE0010EF000FF042
:1005D300000EF1000DF2000CF3000BF4000AF5001D
:1005E30009F60008F70007F80006F90005FA000409
:1005F300FB0003FC0002FD0001FE0000FF0100FE02
:100603000200FD0300FC0400FB0500FA0600F907E5
:1006130000F80800F70900F60A00F50B00F40C00D7
:10062300F30D00F20E00F10F00F01000EF1100EED9
:100633001200ED1300EC1400EB1500EA1600E917A5
:1006430000E81800E71900E61A00E51B00E41C00A7
:10065300E31D00E21E00E11F00E02000DF2100DEB9
:100663002200DD2300DC2400DB2500DA2600D92765
:1006730000D82800D72900D62A00D52B00D42C0077
:10068300D32D00D22E00D12F00D03000CF3100CE99
:100693003200CD3300CC3400CB3500CA3600C93725
:1006A30000C83800C73900C63A00C53B00C43C0047
:1006B300C33D00C23E00C13F00C04000BF4100BE79
:1006C3004200BD4300BC4400BB4500BA4600B947E5
:1006D30000B84800B74900B64A00B54B00B44C0017
:1006E300B34D00B24E00B14F00B05000AF5100AE59
:1006F3005200AD5300AC5400AB5500AA5600A957A5
:1007030000A85800A75900A65A00A55B00A45C00E6
:10071300A35D00A25E00A15F00A060009F61009E38
:1007230062009D63009C64009B65009A6600996764
:1007330000986800976900966A00956B00946C00B6
:10074300936D00926E00916F009070008F71008E18
:1007530072008D73008C74008B75008A7600897724
:1007630000887800877900867A00857B00847C0086
:10077300837D00827E00817F008080007F81007EF8
:1007830082007D83007C84007B85007A86007987E4
:1007930000788800778900768A00758B00748C0056
:1007A300738D00728E00718F007090006F91006ED8
:1007B30092006D93006C94006B95006A96006997A4
:1007C30000689800679900669A00659B00649C0026
:1007D300639D00629E00619F0060A0005FA1005EB8
:1007E300A2005DA3005CA4005BA5005AA60059A764
:1007F3000058A80057A90056AA0055AB0054AC00F6
:1008030053AD0052AE0051AF0050B0004FB1004E97
:10081300B2004DB3004CB4004BB5004AB60049B723
:100823000048B80047B90046BA0045BB0044BC00C5
:1008330043BD0042BE0041BF0040C0003FC1003E77
:10084300C2003DC3003CC4003BC5003AC60039C7E3
:100853000038C80037C90036CA0035CB0034CC0095
:1008630033CD0032CE0031CF0030D0002FD1002E57
:10087300D2002DD3002CD4002BD5002AD60029D7A3
:100883000028D80027D90026DA0025DB0024DC0065
:1008930023DD0022DE0021DF0020E0001FE1001E37
:1008A300E2001DE3001CE4001BE5001AE60019E763
:1008B3000018E80017E90016EA0015EB0014EC0035
:1008C30013ED0012EE0011EF0010F0000FF1000E17
:1008D300F2000DF3000CF4000BF5000AF60009F723
:1008E3000008F80007F90006FA0005FB0004FC0005
:0A08F30003FD0002FE0001FF0000FB
:1018C700C1014100090041000A006036000E000016
:1018D7000000000000000000000000000000000001
:1018E70000000000000000000000000000000000F1
:1018F70000000000000000000000000000000000E1
:10190700000000004100080042000C0000410000F8
:10191700FF410001004100020041000300410004B3
:0D19270000410005004100060141000701DC
:0B1BCC00EF1FAC0670011E4C70F622EB
:041B1E00AB07AA0661
:101B2200900000E4F583F582C3E5829BE5839A5039
:0B1B32000A7FDC7E05121BCCA380EDB7
:011B3D002285
:041BE2008F828E83DD
:031BE600E493FF86
:011BE90022D9
:080F01009000C4EEF0A3EFF034
:100F0900E4FCFBFA9000C4E0FEA3E07807CEC3132B
:100F1900CE13D8F97807C333CE33CED8F9FF900072
:100F2900C6EEF0A3EFF0E4FCECFF9000C7E02FFF62
:100F39009000C6E03400FE121BE27A00AB0774444D
:100F49002CF582E43400F583EFF00CECB480D97C05
:100F5900009000C5E0547F2444F582EC3400F58309
:100F6900EDF09000C6E0FEA3E0F5A6EEF5A775AE9C
:100F7900FFA2AF9200C2AF75C7AA75C755439F01BB
:100F8900A20092AFA2AF9200C2AF75C7AA75C755AA
:100F990043A501A20092AF75AF22A2AF9200C2AFE2
:100FA90075C7AA75C75543A401A20092AFA2AF9213
:100FB90000C2AF75C7AA75C755439F01A20092AF7A
:100FC900A2AF9200C2AF75C7AA75C75543A501A2C2
:100FD9000092AF75AF21E49000C6E0FEA3E02CF5C6
:100FE900A6EEF5A774442CF582E43400F583E0F508
:100FF900AEA2AF9200C2AF75C7AA75C75543A40187
:10100900A20092AF0CECB480CEA2AF9200C2AF7531
:10101900C7AA75C75553A5FEA20092AFA2AF920009
:0F102900C2AF75C7AA75C755539FFEA20092AFFD
:011038002295
:101B7100D2800000000000D2800000000000C2807E
:061B81000000000000223C
:101B8700D2800000000000C2800000000000C28078
:061B970000000000002226
:101B5900E4FEEF30E705121B718003121B87EF25A6
:071B6900E0FF0EEEB408EBF3
:011B70002252
:0B1BD700EF7004121B8722121B71220A
:071BEA0053B1FE43B20122DA
:101B3E00E49000DFF0A3F0C280EF70077F64FE1226
:0A1B4E001BCC227FC27E01121BCCCB
:011B5800226A
:1019F9009000DDEEF0A3EFF0E4FDFF121B3EE4EDF5
:101A090075F003A4240EF582E43400F583E0FF1297
:101A19001B59ED75F003A4240FF582E43400F58316
:101A2900E0FF121B59ED75F003A42410F582E4348C
:101A390000F583E0FF121B590DEDB412C27F0112AC
:021A49001B3E42
:011A4B002278
:101BB0007E007F367D007B017A00790E120E0722AF
:101A9000E49000E1F0A3F0A3F0EF75F003A4240EAE
:101AA000F582E43400F583EBF0EF75F003A4240F26
:101AB000F582E43400F583EDF09000E0E0FEEF7590
:0E1AC000F003A42410F582E43400F583EEF068
:011ACE0022F5
:091ACF009000DCEFF0AC03A90566
:101AD800E4FAAF029000DCE0FDAB019000E0ECF02E
:0F1AE800121A900AEAB412EA7F367E001219F938
:011AF70022CC
:0B14F1009000C9EBF0A3EAF0A3E9F0C3
:1014FC00900003E014602114602F14603C14604AC7
:10150C0014605924057060900001E004F0E0F47060
:10151C005690000304F0804F900000E014F0E0704F
:10152C00469000037402F0803E900002E004F0E06C
:10153C00F47034A37403F0802E900001E014F0E0FA
:10154C0070259000037404F0801D900000E004F0FE
:10155C00E0B4FF139000037405F0800B900002E0E0
:10156C0014F0E07002A3F0900001E0FF9000CCE0DA
:10157C00FBA3E0FAA3E0F9EF120D23900000E0FFCB
:10158C009000C9E0FBA3E0FAA3E0F9EF120D239061
:10159C000002E0FF9000CFE0FBA3E0FAA3E0F9EF3C
:0315AC00120D23FA
:0115AF002219
:101345009000CFEBF0A3EAF0A3E9F0C374FF9FFF91
:10135500C39455503FA3E0FBA3E0FAA3E0F9E412E0
:101365000D23EF75F003A4FEC374FF9EFE9000CF1E
:10137500E0FBA3E0FAA3E0F9EE120D23EF75F0030D
:10138500A4FF9000D5E0FBA3E0FAA3E0F9EF120D6E
:10139500237F0022EFC394AA504474AB2FFF75F04E
:1013A50003A4FE9000D2E0FBA3E0FAA3E0F9EE125D
:1013B5000D239000CFE0FBA3E0FAA3E0F9E4120DC2
:1013C50023EF75F003A4FFC374FF9FFF9000D5E0E2
:1013D500FBA3E0FAA3E0F9EF120D237F0022745678
:1013E5002FFF75F003A4FEC374FF9EFE9000D2E0AC
:1013F500FBA3E0FAA3E0F9EE120D23EF75F003A4C9
:10140500FF9000CFE0FBA3E0FAA3E0F9EF120D2374
:101415009000D5E0FBA3E0FAA3E0F9E4120D23FF69
:0114250022A4
:1015B0009000C4EEF0A3EFF0A3ECF0A3EDF0A3EBEA
:0115C000F03A
:1015C100E49000CBF09000C6E0FCA3E0FD7E007F3C
:1015D10012120D359000CCEEF0A3EFF0E4FBFDFF0D
:1015E100121ACFE49000CBF0E4FBFDFF121ACFE416
:1015F1009000CEF0A3F09000C6E0FEA3E0FF9000C3
:10160100CEE0FCA3E0FDC39FEC9E50339000CCE004
:10161100A3E0FFED8FF0A4FF9000CBE02FFF90003F
:10162100C8E0FDA3E0FBA3E09000E0F0121A909067
:1016310000CFE004F070069000CEE004F080B77FA8
:10164100367E001219F99000C4E0FEA3E0FF121BE0
:0D1651001E9000CBE004F0E0C39412408B2B
:01165E002269
:0E1935009000C4EEF0A3EFF0A3EDF0A3EBF0F2
:10194300E4F9FBFDFF121ACFE4F9AF019000C6E002
:10195300FDA3E0FBA3E09000E0F0121A907F367E37
:10196300001219F99000C4E0FEA3E0FF121B1E0948
:10197300E9B412D6E4F9AF01E49000E0F0FBFD1204
:101983001A907F367E001219F99000C4E0FEA3E09E
:09199300FF121B1E09E9B412DD6C
:01199C002228
:1008FD009000C4EEF0A3EFF0A3ECF0A3EDF0A3EBAA
:01090D00F0F9
:10090E00E49000CEF0A3F09000CBE0FFE4C3EF9BA9
:10091E00FFE49400FEE49400FDE49400FCC006C0E5
:10092E00079000C6E0FEA3E0FFFBAA06E4F9F8D0AC
:10093E0007D006121A4C9000D0120DEF9000C9E0AD
:10094E00FFFBE49000CCE0FFE4C3EF9BFFE49400D8
:10095E00FEE49400FDE49400FCC006C0079000C6BF
:10096E00E0FEA3E0FFFBAA06E4F9F8D007D00612DA
:10097E001A4C9000D4120DEF9000CAE0FFFBE490E9
:10098E0000CDE0FFE4C3EF9BFFE49400FEE494008F
:10099E00FDE49400FCC006C0079000C6E0FEA3E094
:1009AE00FFFBAA06E4F9F8D007D006121A4C900005
:1009BE00D8120DEFE49000CEF0A3F09000C6E0FC4C
:1009CE00A3E0FD9000CEE0FEA3E0FFC39DEE9C40B1
:1009DE0003020A70E4FCFDA3E0F8A3E0F9A3E0FA39
:1009EE00A3E0FB120DA09000C8E02FFFC0079000FF
:1009FE00CEE0FEA3E0FFE4FCFD9000D4E0F8A3E01F
:100A0E00F9A3E0FAA3E0FB120DA09000C9E02FFDC0
:100A1E00C0059000CEE0FEA3E0FFE4FCFD9000D800
:100A2E00E0F8A3E0F9A3E0FAA3E0FB120DA090001A
:100A3E00CAE02FFBD005D007121ACF9000C6E0FCFB
:100A4E00A3E0FD9000C4E0FEA3E0FF120D35121BE3
:100A5E00CC9000CFE004F070069000CEE004F002DF
:100A6E0009C99000C7E024FFFE9000C6E034FF9055
:100A7E0000CEF0A3CEF09000CEE0FEA3E0FFD39424
:100A8E0000EE94005003020B25E4FCFDA3E0F8A356
:100A9E00E0F9A3E0FAA3E0FB120DA09000C8E02F4E
:100AAE00FFC0079000CEE0FEA3E0FFE4FCFD900047
:100ABE00D4E0F8A3E0F9A3E0FAA3E0FB120DA090B6
:100ACE0000C9E02FFDC0059000CEE0FEA3E0FFE4DC
:100ADE00FCFD9000D8E0F8A3E0F9A3E0FAA3E0FB58
:100AEE00120DA09000CAE02FFBD005D007121ACF2E
:100AFE009000C6E0FCA3E0FD9000C4E0FEA3E0FF82
:100B0E00120D35121BCC9000CFE024FFF09000CEDA
:070B1E00E034FFF0020A843D
:010B250022AD
:08165F009000C4EEF0A3EFF0CF
:10166700E4FA900005E06016900004E004F0E0B4AE
:10167700FF03E4A3F07F887E13121BCC8013900036
:1016870004E014F0E07003A304F07FE87E03121B6C
:10169700CCE4FAAF02C007EA75F00384E5F0540121
:1016A700FF900004E0FBEF8BF0A4FDC005EA2401E6
:1016B700FFE433FE7C007D03120D35ED54018BF002
:1016C700A4FBEA2402FFE433FE7C007D03120D3500
:1016D700ED5401FFE0FEEF8EF0A49000E0F0D0059E
:1016E700D007121A907F367E001219F99000C4E0D5
:0C16F700FEA3E0FF121BCC0AEAB412971D
:0117030022C3
:081039009000C4EEF0A3EFF0FB
:10104100E4A3F0A3F0A3F0A3F0A3F09000CDF090FF
:1010510000C6F0A3F0E49000C8F0E49000C9F0A34A
:10106100F09000C9E0FEA3E0FFC39412EE9400509B
:10107100689000C6E0FCA3E0FDEF2DFFEE3CFE7C96
:10108100007DFF120D35AF059000D27401F0A374FD
:1010910000F0A374CCF0A37401F0A37400F0A37466
:1010A100CDF07B017A0079CB1213459000C9E0A302
:1010B100E0FF9000C8E02FFF9000CBE0FDA3E0FB34
:1010C100A3E09000E0F0121A909000CAE02403F02F
:1010D1009000C9E03400F080887F367E001219F953
:1010E1009000C4E0FEA3E0FF121B1EE49000C9F0D3
:1010F100A3F09000C9E0FEA3E0FFC39412EE9400B8
:1011010050209000C8E02FFFE49000E0F0FBFD12BA
:101111001A909000CAE02403F09000C9E03400F076
:1011210080D09000C8E004F0E0C3940350030210A3
:101131005B9000C7E004F070069000C6E004F0C3C5
:0B1141009000C6E0940150030210561D
:01114C002280
:0D124B009000C4EEF0A3EFF0A3EDF0A903B6
:10125800E49000C9F0A3F0A3F0A3F0A3F0A3F090EA
:1012680000C9F0A3F0E49000CBF0A3F0E49000CD27
:10127800F0A3F09000CDE0FEA3E0FFC39412EE943B
:1012880000502C9000CBE0A3E0FDEF2DFF9000C6AE
:10129800E0FDAB019000C8E09000E0F0121A9090D9
:1012A80000CEE02403F09000CDE03400F080C47F4D
:1012B800367E001219F99000C4E0FEA3E0FF121B6D
:1012C8001EE49000CDF0A3F09000CDE0FEA3E0FF77
:1012D800C39412EE940050249000CBE0A3E0FDEFFD
:1012E8002DFFE49000E0F0FBFD121A909000CEE094
:1012F8002403F09000CDE03400F080CC9000CCE0E6
:1013080004F070069000CBE004F0C39000CCE094A9
:10131800039000CBE0940050030212749000CAE0DE
:1013280004F070069000C9E004F0C39000CAE0948D
:0C1338000A9000C9E09400500302126DFE
:011344002286
:0B1426009000C4EFF0A3ECF0A3EDF089
:10143100E4A3F0A3F0A3F0A3F09000CDF09000C9D5
:10144100F0A3F09000C4E0FEC39000CAE0940090C5
:1014510000C9E09E40030214F0E49000C7F0A3F03D
:101461009000C7E0FEA3E0FFC39412EE9400505C2D
:10147100EF7F00FE7C007D12120D35A3E0A3E02F6B
:10148100FF9000D27401F0A37400F0A374CCF0A318
:101491007401F0A37400F0A374CDF07B017A00799C
:1014A100CB1213459000C7E0A3E0FF9000CBE0FD15
:1014B100A3E0FBA3E09000E0F0121A909000C8E0D6
:1014C10004F070069000C7E004F080947F367E003F
:1014D1001219F99000C5E0FEA3E0FF121B1E900057
:0F14E100CAE004F070069000C9E004F002144461
:0114F00022D9
:08199D009000C4EEF0A3EFF08E
:1019A500E4FC9000C8F09000CC7401F0A37400F042
:1019B500A374C7F0A37401F0A37400F0A374C8F076
:1019C5007B017A0079C61214F1AF049000C6E0FDE0
:1019D500A3E0FBA3E09000E0F0121A900CECB41227
:1019E500C57F367E001219F99000C4E0FEA3E0FF22
:0319F500121B1EA4
:0119F80022CC
:08114D009000E4EEF0A3EFF0C6
:10115500E4A3F0A3F0A3F0FCA3F0A3F0FA9000E958
:10116500E0FEA3E090000375F003120DFBEE75F0B1
:1011750003A42583F583E4939000EBF09000E9E068
:10118500A3E090000475F003120DFBEE75F003A4C7
:101195002583F583E493F99000E9E0A3E090000549
:1011A50075F003120DFBEE75F003A42583F583E4BA
:1011B50093FA900006E06030E4AF049000EBE0FDA8
:1011C500AB019000E0EAF0121A900CECB412EA7F41
:1011D500367E001219F99000E4E0FEA3E0FF121B31
:1011E5001EE4900006F080419000E7E4F0A374FF50
:1011F500F09000E7E0A3E0FBFDFF121ACF9000E4BA
:10120500E0FEA3E0FF121B1E9000E8E024FFF09033
:1012150000E7E034FFF0D3A3E0947F9000E7E0948B
:101225000050CE9000067401F09000E9E475F001DD
:10123500120D8AFED3E5F094FEEE94024007E49089
:0512450000E9F0A3F038
:01124A002281
:101704007F027E38121BE2EF7D00FC7F03121BE296
:101714007E00ED2FFFEE3C90000CF0A3EFF0900064
:1017240007E06030C390000DE094FD90000CE0945D
:10173400024011E4900007F090000C7402F0A374CE
:10174400FDF0803C90000DE004F0700690000CE089
:1017540004F0802CD390000DE0940090000CE094F1
:1017640000500F9000077401F0E490000CF0A3F017
:10177400800E90000DE024FFF090000CE034FFF0A8
:1017840090000CE0FD7F027E38120F0190000CE007
:0A179400A3E0FD7F037E38120F0171
:01179E002228
:101AF8007F017E38121BE2900008EFF0E0FF04F04F
:101B0800EFC3940840037401F0900008E0FD7F01E2
:061B18007E38120F0122CD
:011BF10022D1
:100B2600900008E0FF04F0EFC3940940037401F05D
:100B3600900008E014B408004003020D22900B5107
:100B460075F003A4C58325F0C58373020B69020BF8
:100B560078020B82020BD9020BE8020BF0020C663C
:100B6600020CBD7F327E0012199D7F307E00121B63
:100B76001E227D0A7C007F021214262290000CE0C1
:100B8600FEA3E0FF90000375F003120DFBEE75F077
:100B960003A42583F583E493FD90000475F003EF29
:100BA600120DFBEE75F003A42583F583E493FB9009
:100BB600000575F003EF120DFBEE75F003A4258317
:100BC600F583E4939000C8F07F1E7E0012124B124C
:100BD6001704227F017E001210397FF07E00121B5F
:100BE6001E227F3C7E0012165F2290000CE0FEA3C0
:100BF600E0FF90000375F003120DFBEE75F003A401
:100C06002583F583E493FB90000475F003EF120D42
:100C1600FBEE75F003A42583F583E493FF90000CA7
:100C2600E0FCA3E090000575F003120DFBEC75F0F7
:100C360003A42583F583E493FE9000CDF09000CCC9
:100C4600EFF09000CBEBF09000CAEEF09000C9EF09
:100C5600F07D807C007F007EFA1208FD12170422C8
:100C660090000CE0FEA3E0FF90000375F003120D68
:100C7600FBEE75F003A42583F583E493FD90000451
:100C860075F003EF120DFBEE75F003A42583F583D3
:100C9600E493FB90000575F003EF120DFBEE75F083
:100CA60003A42583F583E4939000C8F07F1E7E009D
:100CB6001219351217042290000CE0FEA3E0FF90F3
:100CC600000375F003120DFBEE75F003A42583F502
:100CD60083E493FB90000475F003EF120DFBEE75B1
:100CE600F003A42583F583E493FF90000CE0FCA3B6
:100CF600E090000575F003120DFBEC75F003A425DA
:100D060083F583E4939000CAF09000C9EFF07D0A62
:0D0D16007C007F327E001215B012170422FF
:10183900E58720E4030218C6A2AF9200C2AF75C7BC
:10184900AA75C755439F01A20092AF75A638E4F562
:10185900A775AF04A2AF9200C2AF75C7AA75C755E5
:1018690043A401A20092AF85AE0875A639F5A7A2D7
:10187900AF9200C2AF75C7AA75C75543A401A200AC
:1018890092AF85AE09A2AF9200C2AF75C7AA75C75C
:1018990055539FFEA20092AF75C7AA75C755850813
:1018A9008475C7AA75C755850985A2AF9200C2AFCD
:0D18B90075C7AA75C755539FFEA20092AFD8
:0118C60022FF
:101B9D00121839E4F5B1F5B2F5B3F5B4F5ACF5AD10
:031BAD00D2AF2292
:0C1BC000121B9D121BEA120B2680FB2258
:0300000002179F45
:10179F00787FE4F6D8FD9000007FFF7E03E4F0A38E
:0A17AF00DFFCDEFA7581200217F45A
:1017B900021BC0E493A3F8E493A34003F68001F26B
:1017C90008DFF48029E493A3F85407240CC8C33331
:1017D900C4540F4420C8834004F456800146F6DF00
:1017E900E4800B01020408102040809018C7E47EB1
:1017F900019360BCA3FF543F30E509541FFEE493F5
:10180900A360010ECF54C025E060A840B8E493A3BB
:10181900FAE493A3F8E493A3C8C582C8CAC583CAE6
:10182900F0A3C8C582C8CAC583CADFE9DEE780BE9E
:0119340000B2
:100D2300BB010689828A83F0225002F722BBFE01AF
:020D3300F322A9
:100D3500BC000BBE0029EF8DF084FFADF022E4CCA2
:100D4500F875F008EF2FFFEE33FEEC33FCEE9DEC6B
:100D5500984005FCEE9DFE0FD5F0E9E4CEFD22EDB1
:100D6500F8F5F0EE8420D21CFEADF075F008EF2FFB
:100D7500FFED33FD4007985006D5F0F222C398FDEC
:050D85000FD5F0EA2289
:100D8A00A3F8E0C5F025F0F0E5821582700215831C
:060D9A00E0C838F0E82279
:100DA000E88FF0A4CC8BF0A42CFCE98EF0A42CFCF2
:100DB0008AF0EDA42CFCEA8EF0A4CDA8F08BF0A470
:100DC0002DCC3825F0FDE98FF0A42CCD35F0FCEBCF
:100DD0008EF0A4FEA9F0EB8FF0A4CFC5F02ECD3994
:0F0DE000FEE43CFCEAA42DCE35F0FDE43CFC2201
:101A4C00C2D5E830E70FB2D5E4C39BFBE49AFAE4C5
:101A5C0099F9E498F8EC30E717B2D5121A82120E05
:101A6C006FE4C39BFBE49AFAE499F9E498F88003D9
:101A7C00120E6F30D50DE4C39FFFE49EFEE49DFD76
:041A8C00E49CFC22B8
:0C0DEF00ECF0A3EDF0A3EEF0A3EFF02277
:0C0DFB00A42582F582E5F03583F5832203
:100E0700EF4E6012EF60010EEDBB010B89828A8302
:100E1700F0A3DFFCDEFA2289F05007F709DFFCA90F
:0C0E2700F022BBFEFCF309DFFCA9F02266
:100E330075F008758200EF2FFFEE33FECD33CDCC76
:100E430033CCC58233C5829BED9AEC99E5829840F9
:100E53000CF582EE9BFEED9AFDEC99FC0FD5F0D6D6
:100E6300E4CEFBE4CDFAE4CCF9A88222B800C1B900
:100E73000059BA002DEC8BF084CFCECDFCE5F0CB3E
:100E8300F97818EF2FFFEE33FEED33FDEC33FCEB77
:100E930033FB10D703994004EB99FB0FD8E5E4F932
:100EA300FA227818EF2FFFEE33FEED33FDEC33FC1F
:100EB300C933C910D7059BE99A4007EC9BFCE99A13
:100EC300F90FD8E0E4C9FAE4CCFB2275F010EF2F58
:100ED300FFEE33FEED33FDCC33CCC833C810D70758
:100EE3009BEC9AE899400AED9BFDEC9AFCE899F893
:0E0EF3000FD5F0DAE4CDFBE4CCFAE4C8F92226
:00000001FF
